{
  "_format": "hh-sol-artifact-1",
  "contractName": "CryptoDevsToken",
  "sourceName": "contracts/CryptoDevsToken.sol",
  "abi": [
    {
      "inputs": [
        {
          "internalType": "address",
          "name": "cryptodevsContract",
          "type": "address"
        }
      ],
      "stateMutability": "nonpayable",
      "type": "constructor"
    },
    {
      "anonymous": false,
      "inputs": [
        {
          "indexed": true,
          "internalType": "address",
          "name": "owner",
          "type": "address"
        },
        {
          "indexed": true,
          "internalType": "address",
          "name": "spender",
          "type": "address"
        },
        {
          "indexed": false,
          "internalType": "uint256",
          "name": "value",
          "type": "uint256"
        }
      ],
      "name": "Approval",
      "type": "event"
    },
    {
      "anonymous": false,
      "inputs": [
        {
          "indexed": true,
          "internalType": "address",
          "name": "previousOwner",
          "type": "address"
        },
        {
          "indexed": true,
          "internalType": "address",
          "name": "newOwner",
          "type": "address"
        }
      ],
      "name": "OwnershipTransferred",
      "type": "event"
    },
    {
      "anonymous": false,
      "inputs": [
        {
          "indexed": true,
          "internalType": "address",
          "name": "from",
          "type": "address"
        },
        {
          "indexed": true,
          "internalType": "address",
          "name": "to",
          "type": "address"
        },
        {
          "indexed": false,
          "internalType": "uint256",
          "name": "value",
          "type": "uint256"
        }
      ],
      "name": "Transfer",
      "type": "event"
    },
    {
      "stateMutability": "payable",
      "type": "fallback"
    },
    {
      "inputs": [],
      "name": "airdropAmount",
      "outputs": [
        {
          "internalType": "uint256",
          "name": "",
          "type": "uint256"
        }
      ],
      "stateMutability": "view",
      "type": "function"
    },
    {
      "inputs": [
        {
          "internalType": "address",
          "name": "owner",
          "type": "address"
        },
        {
          "internalType": "address",
          "name": "spender",
          "type": "address"
        }
      ],
      "name": "allowance",
      "outputs": [
        {
          "internalType": "uint256",
          "name": "",
          "type": "uint256"
        }
      ],
      "stateMutability": "view",
      "type": "function"
    },
    {
      "inputs": [
        {
          "internalType": "address",
          "name": "spender",
          "type": "address"
        },
        {
          "internalType": "uint256",
          "name": "amount",
          "type": "uint256"
        }
      ],
      "name": "approve",
      "outputs": [
        {
          "internalType": "bool",
          "name": "",
          "type": "bool"
        }
      ],
      "stateMutability": "nonpayable",
      "type": "function"
    },
    {
      "inputs": [
        {
          "internalType": "address",
          "name": "account",
          "type": "address"
        }
      ],
      "name": "balanceOf",
      "outputs": [
        {
          "internalType": "uint256",
          "name": "",
          "type": "uint256"
        }
      ],
      "stateMutability": "view",
      "type": "function"
    },
    {
      "inputs": [],
      "name": "claim",
      "outputs": [],
      "stateMutability": "nonpayable",
      "type": "function"
    },
    {
      "inputs": [],
      "name": "decimals",
      "outputs": [
        {
          "internalType": "uint8",
          "name": "",
          "type": "uint8"
        }
      ],
      "stateMutability": "view",
      "type": "function"
    },
    {
      "inputs": [
        {
          "internalType": "address",
          "name": "spender",
          "type": "address"
        },
        {
          "internalType": "uint256",
          "name": "subtractedValue",
          "type": "uint256"
        }
      ],
      "name": "decreaseAllowance",
      "outputs": [
        {
          "internalType": "bool",
          "name": "",
          "type": "bool"
        }
      ],
      "stateMutability": "nonpayable",
      "type": "function"
    },
    {
      "inputs": [
        {
          "internalType": "address",
          "name": "spender",
          "type": "address"
        },
        {
          "internalType": "uint256",
          "name": "addedValue",
          "type": "uint256"
        }
      ],
      "name": "increaseAllowance",
      "outputs": [
        {
          "internalType": "bool",
          "name": "",
          "type": "bool"
        }
      ],
      "stateMutability": "nonpayable",
      "type": "function"
    },
    {
      "inputs": [
        {
          "internalType": "uint256",
          "name": "",
          "type": "uint256"
        }
      ],
      "name": "isTokenIdAirdropped",
      "outputs": [
        {
          "internalType": "bool",
          "name": "",
          "type": "bool"
        }
      ],
      "stateMutability": "view",
      "type": "function"
    },
    {
      "inputs": [],
      "name": "maxSupply",
      "outputs": [
        {
          "internalType": "uint256",
          "name": "",
          "type": "uint256"
        }
      ],
      "stateMutability": "view",
      "type": "function"
    },
    {
      "inputs": [
        {
          "internalType": "uint256",
          "name": "amount",
          "type": "uint256"
        }
      ],
      "name": "mint",
      "outputs": [],
      "stateMutability": "payable",
      "type": "function"
    },
    {
      "inputs": [],
      "name": "name",
      "outputs": [
        {
          "internalType": "string",
          "name": "",
          "type": "string"
        }
      ],
      "stateMutability": "view",
      "type": "function"
    },
    {
      "inputs": [],
      "name": "owner",
      "outputs": [
        {
          "internalType": "address",
          "name": "",
          "type": "address"
        }
      ],
      "stateMutability": "view",
      "type": "function"
    },
    {
      "inputs": [],
      "name": "price",
      "outputs": [
        {
          "internalType": "uint256",
          "name": "",
          "type": "uint256"
        }
      ],
      "stateMutability": "view",
      "type": "function"
    },
    {
      "inputs": [],
      "name": "renounceOwnership",
      "outputs": [],
      "stateMutability": "nonpayable",
      "type": "function"
    },
    {
      "inputs": [
        {
          "internalType": "address",
          "name": "adr",
          "type": "address"
        }
      ],
      "name": "selfDestruct",
      "outputs": [],
      "stateMutability": "nonpayable",
      "type": "function"
    },
    {
      "inputs": [],
      "name": "symbol",
      "outputs": [
        {
          "internalType": "string",
          "name": "",
          "type": "string"
        }
      ],
      "stateMutability": "view",
      "type": "function"
    },
    {
      "inputs": [],
      "name": "totalSupply",
      "outputs": [
        {
          "internalType": "uint256",
          "name": "",
          "type": "uint256"
        }
      ],
      "stateMutability": "view",
      "type": "function"
    },
    {
      "inputs": [
        {
          "internalType": "address",
          "name": "to",
          "type": "address"
        },
        {
          "internalType": "uint256",
          "name": "amount",
          "type": "uint256"
        }
      ],
      "name": "transfer",
      "outputs": [
        {
          "internalType": "bool",
          "name": "",
          "type": "bool"
        }
      ],
      "stateMutability": "nonpayable",
      "type": "function"
    },
    {
      "inputs": [
        {
          "internalType": "address",
          "name": "from",
          "type": "address"
        },
        {
          "internalType": "address",
          "name": "to",
          "type": "address"
        },
        {
          "internalType": "uint256",
          "name": "amount",
          "type": "uint256"
        }
      ],
      "name": "transferFrom",
      "outputs": [
        {
          "internalType": "bool",
          "name": "",
          "type": "bool"
        }
      ],
      "stateMutability": "nonpayable",
      "type": "function"
    },
    {
      "inputs": [
        {
          "internalType": "address",
          "name": "newOwner",
          "type": "address"
        }
      ],
      "name": "transferOwnership",
      "outputs": [],
      "stateMutability": "nonpayable",
      "type": "function"
    },
    {
      "inputs": [],
      "name": "withdraw",
      "outputs": [],
      "stateMutability": "nonpayable",
      "type": "function"
    },
    {
      "stateMutability": "payable",
      "type": "receive"
    }
  ],
  "bytecode": "0x60806040523480156200001157600080fd5b506040516200281a3803806200281a833981810160405281019062000037919062000327565b6040518060400160405280601081526020017f43727970746f4465767320546f6b656e000000000000000000000000000000008152506040518060400160405280600281526020017f43440000000000000000000000000000000000000000000000000000000000008152508160039080519060200190620000bb9291906200020d565b508060049080519060200190620000d49291906200020d565b505050620000f7620000eb6200013f60201b60201c565b6200014760201b60201c565b80600660006101000a81548173ffffffffffffffffffffffffffffffffffffffff021916908373ffffffffffffffffffffffffffffffffffffffff16021790555050620003be565b600033905090565b6000600560009054906101000a900473ffffffffffffffffffffffffffffffffffffffff16905081600560006101000a81548173ffffffffffffffffffffffffffffffffffffffff021916908373ffffffffffffffffffffffffffffffffffffffff1602179055508173ffffffffffffffffffffffffffffffffffffffff168173ffffffffffffffffffffffffffffffffffffffff167f8be0079c531659141344cd1fd0a4f28419497f9722a3daafe3b4186f6b6457e060405160405180910390a35050565b8280546200021b9062000388565b90600052602060002090601f0160209004810192826200023f57600085556200028b565b82601f106200025a57805160ff19168380011785556200028b565b828001600101855582156200028b579182015b828111156200028a5782518255916020019190600101906200026d565b5b5090506200029a91906200029e565b5090565b5b80821115620002b95760008160009055506001016200029f565b5090565b600080fd5b600073ffffffffffffffffffffffffffffffffffffffff82169050919050565b6000620002ef82620002c2565b9050919050565b6200030181620002e2565b81146200030d57600080fd5b50565b6000815190506200032181620002f6565b92915050565b60006020828403121562000340576200033f620002bd565b5b6000620003508482850162000310565b91505092915050565b7f4e487b7100000000000000000000000000000000000000000000000000000000600052602260045260246000fd5b60006002820490506001821680620003a157607f821691505b60208210811415620003b857620003b762000359565b5b50919050565b61244c80620003ce6000396000f3fe6080604052600436106101395760003560e01c80638da5cb5b116100ab578063a457c2d71161006f578063a457c2d7146103ff578063a9059cbb1461043c578063d5abeb0114610479578063dd62ed3e146104a4578063f2fde38b146104e1578063fc2ea8a51461050a57610140565b80638da5cb5b1461032557806393183fce1461035057806395d89b411461038d578063a035b1fe146103b8578063a0712d68146103e357610140565b806339509351116100fd578063395093511461023d5780633ccfd60b1461027a5780633f5a0bdd146102915780634e71d92d146102ba57806370a08231146102d1578063715018a61461030e57610140565b806306fdde0314610142578063095ea7b31461016d57806318160ddd146101aa57806323b872dd146101d5578063313ce5671461021257610140565b3661014057005b005b34801561014e57600080fd5b50610157610535565b60405161016491906115ef565b60405180910390f35b34801561017957600080fd5b50610194600480360381019061018f91906116aa565b6105c7565b6040516101a19190611705565b60405180910390f35b3480156101b657600080fd5b506101bf6105ea565b6040516101cc919061172f565b60405180910390f35b3480156101e157600080fd5b506101fc60048036038101906101f7919061174a565b6105f4565b6040516102099190611705565b60405180910390f35b34801561021e57600080fd5b50610227610623565b60405161023491906117b9565b60405180910390f35b34801561024957600080fd5b50610264600480360381019061025f91906116aa565b61062c565b6040516102719190611705565b60405180910390f35b34801561028657600080fd5b5061028f610663565b005b34801561029d57600080fd5b506102b860048036038101906102b391906117d4565b61072d565b005b3480156102c657600080fd5b506102cf610746565b005b3480156102dd57600080fd5b506102f860048036038101906102f391906117d4565b6109db565b604051610305919061172f565b60405180910390f35b34801561031a57600080fd5b50610323610a23565b005b34801561033157600080fd5b5061033a610a37565b6040516103479190611810565b60405180910390f35b34801561035c57600080fd5b506103776004803603810190610372919061182b565b610a61565b6040516103849190611705565b60405180910390f35b34801561039957600080fd5b506103a2610a81565b6040516103af91906115ef565b60405180910390f35b3480156103c457600080fd5b506103cd610b13565b6040516103da919061172f565b60405180910390f35b6103fd60048036038101906103f8919061182b565b610b1e565b005b34801561040b57600080fd5b50610426600480360381019061042191906116aa565b610c09565b6040516104339190611705565b60405180910390f35b34801561044857600080fd5b50610463600480360381019061045e91906116aa565b610c80565b6040516104709190611705565b60405180910390f35b34801561048557600080fd5b5061048e610ca3565b60405161049b919061172f565b60405180910390f35b3480156104b057600080fd5b506104cb60048036038101906104c69190611858565b610cb1565b6040516104d8919061172f565b60405180910390f35b3480156104ed57600080fd5b50610508600480360381019061050391906117d4565b610d38565b005b34801561051657600080fd5b5061051f610dbc565b60405161052c919061172f565b60405180910390f35b606060038054610544906118c7565b80601f0160208091040260200160405190810160405280929190818152602001828054610570906118c7565b80156105bd5780601f10610592576101008083540402835291602001916105bd565b820191906000526020600020905b8154815290600101906020018083116105a057829003601f168201915b5050505050905090565b6000806105d2610dc8565b90506105df818585610dd0565b600191505092915050565b6000600254905090565b6000806105ff610dc8565b905061060c858285610f9b565b610617858585611027565b60019150509392505050565b60006012905090565b600080610637610dc8565b90506106588185856106498589610cb1565b6106539190611928565b610dd0565b600191505092915050565b61066b6112a8565b6000610675610a37565b9050600047905060008273ffffffffffffffffffffffffffffffffffffffff16826040516106a2906119af565b60006040518083038185875af1925050503d80600081146106df576040519150601f19603f3d011682016040523d82523d6000602084013e6106e4565b606091505b5050905080610728576040517f08c379a000000000000000000000000000000000000000000000000000000000815260040161071f90611a10565b60405180910390fd5b505050565b8073ffffffffffffffffffffffffffffffffffffffff16ff5b6000600660009054906101000a900473ffffffffffffffffffffffffffffffffffffffff1673ffffffffffffffffffffffffffffffffffffffff166370a08231336040518263ffffffff1660e01b81526004016107a39190611810565b60206040518083038186803b1580156107bb57600080fd5b505afa1580156107cf573d6000803e3d6000fd5b505050506040513d601f19601f820116820180604052508101906107f39190611a45565b905060008111610838576040517f08c379a000000000000000000000000000000000000000000000000000000000815260040161082f90611ae4565b60405180910390fd5b600080600090505b828160ff161015610970576000600660009054906101000a900473ffffffffffffffffffffffffffffffffffffffff1673ffffffffffffffffffffffffffffffffffffffff16632f745c5933846040518363ffffffff1660e01b81526004016108aa929190611b3f565b60206040518083038186803b1580156108c257600080fd5b505afa1580156108d6573d6000803e3d6000fd5b505050506040513d601f19601f820116820180604052508101906108fa9190611a45565b90506007600082815260200190815260200160002060009054906101000a900460ff1661095c5760016007600083815260200190815260200160002060006101000a81548160ff021916908315150217905550828061095890611b68565b9350505b50808061096890611b68565b915050610840565b5060008160ff16116109b7576040517f08c379a00000000000000000000000000000000000000000000000000000000081526004016109ae90611c04565b60405180910390fd5b6109d7338260ff16678ac7230489e800006109d29190611c24565b611326565b5050565b60008060008373ffffffffffffffffffffffffffffffffffffffff1673ffffffffffffffffffffffffffffffffffffffff168152602001908152602001600020549050919050565b610a2b6112a8565b610a356000611486565b565b6000600560009054906101000a900473ffffffffffffffffffffffffffffffffffffffff16905090565b60076020528060005260406000206000915054906101000a900460ff1681565b606060048054610a90906118c7565b80601f0160208091040260200160405190810160405280929190818152602001828054610abc906118c7565b8015610b095780601f10610ade57610100808354040283529160200191610b09565b820191906000526020600020905b815481529060010190602001808311610aec57829003601f168201915b5050505050905090565b66038d7ea4c6800081565b6000610b28610623565b600a610b349190611db1565b82610b3f9190611c24565b905069021e19e0c9bab240000081610b556105ea565b610b5f9190611928565b1115610ba0576040517f08c379a0000000000000000000000000000000000000000000000000000000008152600401610b9790611e48565b60405180910390fd5b600066038d7ea4c6800083610bb59190611c24565b905034811115610bfa576040517f08c379a0000000000000000000000000000000000000000000000000000000008152600401610bf190611eb4565b60405180910390fd5b610c043383611326565b505050565b600080610c14610dc8565b90506000610c228286610cb1565b905083811015610c67576040517f08c379a0000000000000000000000000000000000000000000000000000000008152600401610c5e90611f46565b60405180910390fd5b610c748286868403610dd0565b60019250505092915050565b600080610c8b610dc8565b9050610c98818585611027565b600191505092915050565b69021e19e0c9bab240000081565b6000600160008473ffffffffffffffffffffffffffffffffffffffff1673ffffffffffffffffffffffffffffffffffffffff16815260200190815260200160002060008373ffffffffffffffffffffffffffffffffffffffff1673ffffffffffffffffffffffffffffffffffffffff16815260200190815260200160002054905092915050565b610d406112a8565b600073ffffffffffffffffffffffffffffffffffffffff168173ffffffffffffffffffffffffffffffffffffffff161415610db0576040517f08c379a0000000000000000000000000000000000000000000000000000000008152600401610da790611fd8565b60405180910390fd5b610db981611486565b50565b678ac7230489e8000081565b600033905090565b600073ffffffffffffffffffffffffffffffffffffffff168373ffffffffffffffffffffffffffffffffffffffff161415610e40576040517f08c379a0000000000000000000000000000000000000000000000000000000008152600401610e379061206a565b60405180910390fd5b600073ffffffffffffffffffffffffffffffffffffffff168273ffffffffffffffffffffffffffffffffffffffff161415610eb0576040517f08c379a0000000000000000000000000000000000000000000000000000000008152600401610ea7906120fc565b60405180910390fd5b80600160008573ffffffffffffffffffffffffffffffffffffffff1673ffffffffffffffffffffffffffffffffffffffff16815260200190815260200160002060008473ffffffffffffffffffffffffffffffffffffffff1673ffffffffffffffffffffffffffffffffffffffff168152602001908152602001600020819055508173ffffffffffffffffffffffffffffffffffffffff168373ffffffffffffffffffffffffffffffffffffffff167f8c5be1e5ebec7d5bd14f71427d1e84f3dd0314c0f7b2291e5b200ac8c7c3b92583604051610f8e919061172f565b60405180910390a3505050565b6000610fa78484610cb1565b90507fffffffffffffffffffffffffffffffffffffffffffffffffffffffffffffffff81146110215781811015611013576040517f08c379a000000000000000000000000000000000000000000000000000000000815260040161100a90612168565b60405180910390fd5b6110208484848403610dd0565b5b50505050565b600073ffffffffffffffffffffffffffffffffffffffff168373ffffffffffffffffffffffffffffffffffffffff161415611097576040517f08c379a000000000000000000000000000000000000000000000000000000000815260040161108e906121fa565b60405180910390fd5b600073ffffffffffffffffffffffffffffffffffffffff168273ffffffffffffffffffffffffffffffffffffffff161415611107576040517f08c379a00000000000000000000000000000000000000000000000000000000081526004016110fe9061228c565b60405180910390fd5b61111283838361154c565b60008060008573ffffffffffffffffffffffffffffffffffffffff1673ffffffffffffffffffffffffffffffffffffffff16815260200190815260200160002054905081811015611198576040517f08c379a000000000000000000000000000000000000000000000000000000000815260040161118f9061231e565b60405180910390fd5b8181036000808673ffffffffffffffffffffffffffffffffffffffff1673ffffffffffffffffffffffffffffffffffffffff16815260200190815260200160002081905550816000808573ffffffffffffffffffffffffffffffffffffffff1673ffffffffffffffffffffffffffffffffffffffff168152602001908152602001600020600082825461122b9190611928565b925050819055508273ffffffffffffffffffffffffffffffffffffffff168473ffffffffffffffffffffffffffffffffffffffff167fddf252ad1be2c89b69c2b068fc378daa952ba7f163c4a11628f55a4df523b3ef8460405161128f919061172f565b60405180910390a36112a2848484611551565b50505050565b6112b0610dc8565b73ffffffffffffffffffffffffffffffffffffffff166112ce610a37565b73ffffffffffffffffffffffffffffffffffffffff1614611324576040517f08c379a000000000000000000000000000000000000000000000000000000000815260040161131b9061238a565b60405180910390fd5b565b600073ffffffffffffffffffffffffffffffffffffffff168273ffffffffffffffffffffffffffffffffffffffff161415611396576040517f08c379a000000000000000000000000000000000000000000000000000000000815260040161138d906123f6565b60405180910390fd5b6113a26000838361154c565b80600260008282546113b49190611928565b92505081905550806000808473ffffffffffffffffffffffffffffffffffffffff1673ffffffffffffffffffffffffffffffffffffffff16815260200190815260200160002060008282546114099190611928565b925050819055508173ffffffffffffffffffffffffffffffffffffffff16600073ffffffffffffffffffffffffffffffffffffffff167fddf252ad1be2c89b69c2b068fc378daa952ba7f163c4a11628f55a4df523b3ef8360405161146e919061172f565b60405180910390a361148260008383611551565b5050565b6000600560009054906101000a900473ffffffffffffffffffffffffffffffffffffffff16905081600560006101000a81548173ffffffffffffffffffffffffffffffffffffffff021916908373ffffffffffffffffffffffffffffffffffffffff1602179055508173ffffffffffffffffffffffffffffffffffffffff168173ffffffffffffffffffffffffffffffffffffffff167f8be0079c531659141344cd1fd0a4f28419497f9722a3daafe3b4186f6b6457e060405160405180910390a35050565b505050565b505050565b600081519050919050565b600082825260208201905092915050565b60005b83811015611590578082015181840152602081019050611575565b8381111561159f576000848401525b50505050565b6000601f19601f8301169050919050565b60006115c182611556565b6115cb8185611561565b93506115db818560208601611572565b6115e4816115a5565b840191505092915050565b6000602082019050818103600083015261160981846115b6565b905092915050565b600080fd5b600073ffffffffffffffffffffffffffffffffffffffff82169050919050565b600061164182611616565b9050919050565b61165181611636565b811461165c57600080fd5b50565b60008135905061166e81611648565b92915050565b6000819050919050565b61168781611674565b811461169257600080fd5b50565b6000813590506116a48161167e565b92915050565b600080604083850312156116c1576116c0611611565b5b60006116cf8582860161165f565b92505060206116e085828601611695565b9150509250929050565b60008115159050919050565b6116ff816116ea565b82525050565b600060208201905061171a60008301846116f6565b92915050565b61172981611674565b82525050565b60006020820190506117446000830184611720565b92915050565b60008060006060848603121561176357611762611611565b5b60006117718682870161165f565b93505060206117828682870161165f565b925050604061179386828701611695565b9150509250925092565b600060ff82169050919050565b6117b38161179d565b82525050565b60006020820190506117ce60008301846117aa565b92915050565b6000602082840312156117ea576117e9611611565b5b60006117f88482850161165f565b91505092915050565b61180a81611636565b82525050565b60006020820190506118256000830184611801565b92915050565b60006020828403121561184157611840611611565b5b600061184f84828501611695565b91505092915050565b6000806040838503121561186f5761186e611611565b5b600061187d8582860161165f565b925050602061188e8582860161165f565b9150509250929050565b7f4e487b7100000000000000000000000000000000000000000000000000000000600052602260045260246000fd5b600060028204905060018216806118df57607f821691505b602082108114156118f3576118f2611898565b5b50919050565b7f4e487b7100000000000000000000000000000000000000000000000000000000600052601160045260246000fd5b600061193382611674565b915061193e83611674565b9250827fffffffffffffffffffffffffffffffffffffffffffffffffffffffffffffffff03821115611973576119726118f9565b5b828201905092915050565b600081905092915050565b50565b600061199960008361197e565b91506119a482611989565b600082019050919050565b60006119ba8261198c565b9150819050919050565b7f6661696c656420746f2073656e64204574686572000000000000000000000000600082015250565b60006119fa601483611561565b9150611a05826119c4565b602082019050919050565b60006020820190508181036000830152611a29816119ed565b9050919050565b600081519050611a3f8161167e565b92915050565b600060208284031215611a5b57611a5a611611565b5b6000611a6984828501611a30565b91505092915050565b7f596f7520646f6e277420686f6c6420616e792043727970746f44657673204e4660008201527f5420210000000000000000000000000000000000000000000000000000000000602082015250565b6000611ace602383611561565b9150611ad982611a72565b604082019050919050565b60006020820190508181036000830152611afd81611ac1565b9050919050565b6000819050919050565b6000611b29611b24611b1f8461179d565b611b04565b611674565b9050919050565b611b3981611b0e565b82525050565b6000604082019050611b546000830185611801565b611b616020830184611b30565b9392505050565b6000611b738261179d565b915060ff821415611b8757611b866118f9565b5b600182019050919050565b7f596f7520616c726561647920676f7420616c6c20796f7572204e46542061697260008201527f64726f7070656420210000000000000000000000000000000000000000000000602082015250565b6000611bee602983611561565b9150611bf982611b92565b604082019050919050565b60006020820190508181036000830152611c1d81611be1565b9050919050565b6000611c2f82611674565b9150611c3a83611674565b9250817fffffffffffffffffffffffffffffffffffffffffffffffffffffffffffffffff0483118215151615611c7357611c726118f9565b5b828202905092915050565b60008160011c9050919050565b6000808291508390505b6001851115611cd557808604811115611cb157611cb06118f9565b5b6001851615611cc05780820291505b8081029050611cce85611c7e565b9450611c95565b94509492505050565b600082611cee5760019050611daa565b81611cfc5760009050611daa565b8160018114611d125760028114611d1c57611d4b565b6001915050611daa565b60ff841115611d2e57611d2d6118f9565b5b8360020a915084821115611d4557611d446118f9565b5b50611daa565b5060208310610133831016604e8410600b8410161715611d805782820a905083811115611d7b57611d7a6118f9565b5b611daa565b611d8d8484846001611c8b565b92509050818404811115611da457611da36118f9565b5b81810290505b9392505050565b6000611dbc82611674565b9150611dc78361179d565b9250611df47fffffffffffffffffffffffffffffffffffffffffffffffffffffffffffffffff8484611cde565b905092915050565b7f4e6f7420656e6f75676820746f6b656e2072656d61696e696e67000000000000600082015250565b6000611e32601a83611561565b9150611e3d82611dfc565b602082019050919050565b60006020820190508181036000830152611e6181611e25565b9050919050565b7f4e6f7420656e6f756768206574682070726f7669646564202100000000000000600082015250565b6000611e9e601983611561565b9150611ea982611e68565b602082019050919050565b60006020820190508181036000830152611ecd81611e91565b9050919050565b7f45524332303a2064656372656173656420616c6c6f77616e63652062656c6f7760008201527f207a65726f000000000000000000000000000000000000000000000000000000602082015250565b6000611f30602583611561565b9150611f3b82611ed4565b604082019050919050565b60006020820190508181036000830152611f5f81611f23565b9050919050565b7f4f776e61626c653a206e6577206f776e657220697320746865207a65726f206160008201527f6464726573730000000000000000000000000000000000000000000000000000602082015250565b6000611fc2602683611561565b9150611fcd82611f66565b604082019050919050565b60006020820190508181036000830152611ff181611fb5565b9050919050565b7f45524332303a20617070726f76652066726f6d20746865207a65726f2061646460008201527f7265737300000000000000000000000000000000000000000000000000000000602082015250565b6000612054602483611561565b915061205f82611ff8565b604082019050919050565b6000602082019050818103600083015261208381612047565b9050919050565b7f45524332303a20617070726f766520746f20746865207a65726f20616464726560008201527f7373000000000000000000000000000000000000000000000000000000000000602082015250565b60006120e6602283611561565b91506120f18261208a565b604082019050919050565b60006020820190508181036000830152612115816120d9565b9050919050565b7f45524332303a20696e73756666696369656e7420616c6c6f77616e6365000000600082015250565b6000612152601d83611561565b915061215d8261211c565b602082019050919050565b6000602082019050818103600083015261218181612145565b9050919050565b7f45524332303a207472616e736665722066726f6d20746865207a65726f20616460008201527f6472657373000000000000000000000000000000000000000000000000000000602082015250565b60006121e4602583611561565b91506121ef82612188565b604082019050919050565b60006020820190508181036000830152612213816121d7565b9050919050565b7f45524332303a207472616e7366657220746f20746865207a65726f206164647260008201527f6573730000000000000000000000000000000000000000000000000000000000602082015250565b6000612276602383611561565b91506122818261221a565b604082019050919050565b600060208201905081810360008301526122a581612269565b9050919050565b7f45524332303a207472616e7366657220616d6f756e742065786365656473206260008201527f616c616e63650000000000000000000000000000000000000000000000000000602082015250565b6000612308602683611561565b9150612313826122ac565b604082019050919050565b60006020820190508181036000830152612337816122fb565b9050919050565b7f4f776e61626c653a2063616c6c6572206973206e6f7420746865206f776e6572600082015250565b6000612374602083611561565b915061237f8261233e565b602082019050919050565b600060208201905081810360008301526123a381612367565b9050919050565b7f45524332303a206d696e7420746f20746865207a65726f206164647265737300600082015250565b60006123e0601f83611561565b91506123eb826123aa565b602082019050919050565b6000602082019050818103600083015261240f816123d3565b905091905056fea2646970667358221220161f5ccdd0a136a3185899f2fa9c4b0704c1478a16e4df44773652aa1839041864736f6c63430008090033",
  "linkReferences": {},
  "deployedLinkReferences": {}
}